:02000002B0004C
:1040000000400B00FC530B00000006000C000502F2
:0840100004010410000000008F
:04401800D0500B0079
:10401C0009480A49884208B505D0094A824202D0AB
:10402C00121A00F09DFF0748074A0021121A00F0EF
:10403C00A5FF014808BD00BF40E6032068530B00F4
:10404C00ACE60320ACE60320EDE7032070B5074E89
:10405C00074C00F051FEA41BA4080025AC4200D173
:10406C0070BD56F8043B98470135F7E710530B0029
:10407C0034530B0000F013B808B500F035F8BDE868
:10408C00084000F0F1BD00F03DBA00F043BA0078F2
:10409C00B0FA80F04009704701230370704708B5EF
:1040AC000121022000F098FE0021072000F094FE70
:1040BC0000F054FD4FF4165100F040FD00F024FFC9
:1040CC004FF4165100F0E2FC00F048FD00F03AFD10
:1040DC0000F044FD03681B69984700F03FFD00F0B9
:1040EC0031FD0028F9D008BD10B500F00DFF0368B4
:1040FC001B699847A0B300F007FF03685B699847FA
:10410C00C0B231280AD10121022000F076FE00F065
:10411C0025FD1449BDE8104000F00DBC302807D136
:10412C000021022000F069FE00F018FD0E49F1E7B5
:10413C003F2815D100F0E8FE0446072000F076FE7B
:10414C0081B2204600F0A5FC072000F06FFE18B1EC
:10415C0000F004FD0549DDE700F000FD0449D9E756
:10416C0010BD00BFE4500B00F2500B0001510B00CE
:10417C0017510B0010B5074B074A9A600024C3E98E
:10418C000044032000F032F921460120BDE8104024
:10419C0000F034B9ACE603200000FFFF08B5024B79
:1041AC001B685B6C019308BD4802030008B5024B09
:1041BC001B685B68019308BD1802030008B5024B2D
:1041CC001B685B69019308BD1802030008B5024B1C
:1041DC001B689B68019308BD2C02030008B5024BB9
:1041EC001B68DB68019308BD2C02030008B5024B69
:1041FC001B681B69019308BD2C02030008B5024B18
:10420C001B685B69019308BD2C02030008B5024BC7
:10421C001B681B6A019308BD2802030008B5024BFA
:10422C001B685B6A019308BD2802030008B5024BAA
:10423C001B689B6A019308BD2802030008B5024B5A
:10424C001B68DB6A019308BD2802030008B5024B0A
:10425C001B681B6B019308BD2802030008B5024BB9
:10426C001B685B6B019308BD2802030008B5024B69
:10427C001B681B6C019308BD2802030008B5024B98
:10428C001B685B69019308BD6402030008B5024B0F
:10429C001B689B68019308BD6802030008B5024BBC
:1042AC001B68DB68019308BD6802030008B5024B6C
:1042BC001B68DB69019308BD3002030008B5024B93
:1042CC001B681B6A019308BD3002030008B5024B42
:1042DC001B68DB68019308BD3C02030008B5024B68
:1042EC001B681B69019308BD3C02030008B5024B17
:1042FC001B685B69019308BD3C02030008B5024BC7
:10430C001B689B69019308BD3C02030008B5024B76
:10431C001B68DB69019308BD3C02030008B5024B26
:10432C001B681B6A019308BD3C02030008B5024BD5
:10433C001B689B6A019308BD3C02030008B5024B45
:10434C001B68DB6A019308BD3C02030008B5024BF5
:10435C001B681B6B019308BD3C02030008B5024BA4
:10436C001B681B6C019308BD3C02030008B5024B93
:10437C001B681B68019308BD4C02030008B5024B77
:10438C001B685B68019308BD4C02030008B5024B27
:10439C001B681B69019308BD4C02030008B5024B56
:1043AC001B685B69019308BD4C02030008B5024B06
:1043BC001B689B69019308BD4C02030008B5024BB6
:1043CC001B68DB69019308BD4C02030008B5024B66
:1043DC001B681B6A019308BD4C02030008B5024B15
:1043EC001B689B6A019308BD4C02030008B5024B85
:1043FC001B685B68019308BD2002030008B5024BE3
:10440C001B68DB6A019308BD2002030008B5034B4F
:10441C001B68D3F88830019308BD0000200203000C
:10442C0008B5034B1B68D3F89430019308BD00000A
:10443C002002030008B5024B1B68DB6B019308BD1F
:10444C004402030008B5024B1B685B68019308BD6E
:10445C004002030008B5024B1B689B68019308BD22
:10446C004002030008B5024B1B68DB68019308BDD2
:10447C004002030008B5024B1B681B69019308BD81
:10448C004002030008B5024B1B685B69019308BD31
:10449C004002030008B5024B1B689B69019308BDE1
:1044AC004002030008B5024B1B68DB69019308BD91
:1044BC004002030008B5024B1B681B6A019308BD40
:1044CC004002030008B5024B1B681B6B019308BD2F
:1044DC004002030008B5024B1B685B6B019308BDDF
:1044EC004002030008B5024B1B681B6C019308BD0E
:1044FC004002030008B5024B1B685B6C019308BDBE
:10450C004002030008B5024B1B681B68019308BDF1
:10451C001C02030008B5024B1B685B68019308BDC5
:10452C001C02030008B5024B1B681B6C019308BDF1
:10453C001C02030008B5024B1B685B6C019308BDA1
:10454C001C020300024800230360FFF727BE00BFD4
:10455C00B8E60320002240681146FFF7ABBF0022EB
:10456C0040681146FFF7B6BF40680022FFF7AABFAC
:10457C004068002281F00101FFF794BF00234068DE
:10458C001A461946FFF786BF002340681A4619469B
:10459C00FFF778BF002240681146FFF76BBF00227F
:1045AC0040681146FFF756BF406800220221FFF712
:1045BC0059BF002340681A46FFF744BF024B032241
:1045CC005A60024A1A607047BCE6032034510B0053
:1045DC007047F8B5064615460C468F18BC4206D0F7
:1045EC00336814F8011B9B6830469847F6E7284659
:1045FC00F8BD007C0022FFF709BE007C0021FFF70C
:10460C000DBE007C0021FFF711BE007C0021FFF7DE
:10461C0015BE007C0021FFF719BE10B5142104460D
:10462C00FFF733FD204610BD38B5044615464FF450
:10463C007A730022C4E90123094B217408462360D4
:10464C002946FFF713FEBF3008D16B69DB0705D590
:10465C006868FFF75FFFE868FFF75CFF204638BD2E
:10466C0070510B00704710B518210446FFF70DFD73
:10467C00204610BDF0B5037D062B8DB00E4600F123
:10468C0004074FF0000412D000F1080515F8011DC5
:10469C000A22304600F059F9AF42044419D0002CDC
:1046AC00F4D02E21304600F037F90444EEE72F23E6
:1046BC006A4639460A208DF80040FFF7DFFD684650
:1046CC0000F092FC33680246DB6869463046984736
:1046DC00044620460DB0F0BD10B5054B0446112222
:1046EC0040F8043B002100F049FC204610BD00BFFF
:1046FC0098510B000346074A10B543F8042B01F1FF
:10470C00100251F8044B43F8044B9142F9D10A784A
:10471C001A7010BD98510B0010B59DF8084044EA72
:10472C00032343EA024242EA016104234160037518
:10473C0010BD000007B5064B0360CB7800938B7857
:10474C004A780978FFF7E8FF03B05DF804FB00BF77
:10475C0098510B00014B024A1A607047C4E60320C3
:10476C00A4510B00002340681A46FFF76BBE40684B
:10477C0000220221FFF776BE002240681146FFF7A7
:10478C0069BE002240681146FFF774BE00234068E2
:10479C001A461946FFF776BE002340681A4619469A
:1047AC00FFF778BE40680021FFF79CBE40680021EF
:1047BC00FFF7A0BE4068002281F00101FFF772BE36
:1047CC0040680022FFF77EBE002240681146FFF7CA
:1047DC0081BE002240681146FFF76CBE2DE9F04304
:1047EC0095B014460D460746FFF776FF00211C22B4
:1047FC000DA8009100F0C2FB40230C9320466B46A1
:10480C000CAA0021FFF74AFD044600284BD10246B2
:10481C0001216868FFF72EFE022180462246686857
:10482C00FFF728FE009E81462146002E3BD0002932
:10483C0039D17368022B03D00A2B11D0F669F4E737
:10484C00B8F1000FFAD0716906A8043107ADFFF773
:10485C0071FF0FCD3C1D0FC42B6823704146EDE753
:10486C00B9F1000FEAD07469102201A800F086FBA0
:10487C0006238DF8143001AD04F1080318341868C0
:10488C0059682A4603C20833A3421546F7D101A939
:10489C0006A807ADFFF72EFF0FCD3C1D0FC42B68EC
:1048AC0023704946CAE70098FFF7F0FC384615B06C
:1048BC00BDE8F083024B034A1A6000225A6070472D
:1048CC00C8E60320B0510B00F8B506460D468F180C
:1048DC000024BD420CD0336815F8011B9B68304690
:1048EC009847031E01DB1C44F3E7002C08BF1C4651
:1048FC002046F8BD13B50446084659B1019100F0A5
:10490C0073FB23680199DB680246204602B0BDE8C0
:10491C001040184702B010BD03689B68184738B5A3
:10492C000D210546FFF7F8FF0A2104462846FFF73C
:10493C00F3FF204438BD38B50546FFF7DBFF0446CE
:10494C002846FFF7ECFF204438BD30B58BB0002370
:10495C00012A8DF8243098BF0A2209AC0D46B1FB10
:10496C00F2F101FB125303F0FF03092B94BF303318
:10497C003733DBB2AA4204F8013DEFD92146FFF7E9
:10498C00B9FF0BB030BD0000014B00229A6070479C
:10499C00D0E6032010B5044608462170FFF786FCCC
:1049AC0000236360204610BD054B02221A60054BA4
:1049BC00054A9A600020C3E90000FFF717BD00BF4D
:1049CC00ECE60320E0E603200000FFFF024B1A6830
:1049DC00024B1A60704700BF40E60320F0E603204C
:1049EC0070474174704708B5007CFFF79FFC20EAC4
:1049FC00E07008BD08B5007CFFF770FC20EAE070A1
:104A0C0008BD08B5007CFFF779FC40EAE07008BDF2
:104A1C0008B5007CFFF76AFC40EAE07008BD007C3A
:104A2C00FFF774BC37B5457C04462DB1207C03B030
:104A3C00BDE83040FFF74ABC007C0191FFF776FCE3
:104A4C0000280199F2DC284603B030BD10B51421C2
:104A5C000446FFF71AFB204610BD000010B54FF4BA
:104A6C007A730446084611460022C4E90123044B1C
:104A7C002360012320746374FFF770FC204610BD83
:104A8C0008520B00007C0023FFF758BC0022FFF7F4
:104A9C00F9BF007CFFF75ABC4174704770477047F0
:104AAC0008B50021007CFFF781FC40EAE07008BDEE
:104ABC0008B50121007CFFF779FC40EAE07008BDE5
:104ACC0008B5007CFFF76AFC20EAE07008BD08B569
:104ADC00007CFFF75BFC20EAE07008BD13B50446D0
:104AEC00007C0191FFF75AFC0028019901DC607CE5
:104AFC0020B1207CFFF762FC20EAE07002B010BD10
:104B0C00007CFFF763BC10B514210446FFF7BDFA17
:104B1C00204610BD10B54FF47A73044608460021A8
:104B2C00C4E90113044B2360012320746374114600
:104B3C00FFF71CFC204610BD38520B00007C0022F5
:104B4C00FFF71CBC007CFFF749BC10B514220446CF
:104B5C00002100F013FA204610BD000010B50F4CD8
:104B6C0088B003A8FFF7F1FF2178BFF35B8F11F03A
:104B7C0001010FD120460191FFF789FA019948B143
:104B8C0003AA0748FFF7C6FF2046FFF785FA05483A
:104B9C0000F0E0F9024808B010BD00BFF4E60320B5
:104BAC00F8E60320A94A0B00002240681146FFF7E3
:104BBC0061BC002240681146FFF77CBC00224068B3
:104BCC001146FFF787BC40680022FFF77BBC4068AA
:104BDC00002281F00101FFF765BC002340681A46F2
:104BEC001946FFF757BC002340681A461946FFF7D1
:104BFC0049BC002240681146FFF72CBC40680022DB
:104C0C000221FFF72FBC002340681A46FFF71ABC9D
:104C1C00024B04225A60024A1A6070470CE70320C8
:104C2C0068520B00014B1860704700BF44E603202C
:104C3C0008B50B4B43B1FFF791FF03681B6998470D
:104C4C00002801DDAFF30080064B43B100F05CF9A6
:104C5C0003681B699847002801DDAFF3008008BD8D
:104C6C00000000000000000008B5FFF7E1FFFFF7AF
:104C7C00A5FA014B186008BD28E703200548064A31
:104C8C00064908B5121A00F06BF9054B054A1A6073
:104C9C0008BD00BF00F4032004F4032064530B0090
:104CAC0000F403201E1C279A07B5002300931A4614
:104CBC006FF07701FFF7B4FB03B05DF804FB000065
:104CCC0007B543880A2B08D0502B0BD1094B1B6816
:104CDC004BB103B05DF804EB1847FFF7E5FF03B0E9
:104CEC005DF804FB002300931A466FF07701FFF781
:104CFC0097FBF4E718E7032010B512480021FFF7E3
:104D0C0019FC114B1A68114B9A42114B0CBF012222
:104D1C0000221A7001D0FFF7B1FFFFF747FA0446E3
:104D2C0000F034F90B4B13B12046AFF30080002197
:104D3C000848FFF77FFBBDE8104007480021FFF74C
:104D4C0065BB00BF314C0B0000F403201E1C279ADE
:104D5C0014E7032000000000CD4C0B00232813B5F2
:104D6C0002D9002002B010BDA0F10B03022B1AD8FF
:104D7C00174C2178BFF35B8F11F001010BD120464A
:104D8C000191FFF784F9019928B11248FFF702FE4F
:104D9C002046FFF781F90F4B1878FFF78FFA0028A0
:104DAC00DFD10120DEE7012809D800F06DF80021E1
:104DBC00007CFFF753FA80F00100C0B2D2E709384B
:104DCC000128EED800F0A0F8007CFFF7A7FAF2E774
:104DDC001CE7032020E70320232838B504460D46A2
:104DEC000AD8FF2908D0FFF7B9FF28B12946204679
:104DFC00BDE83840FFF7EAB938BD38B504460D4672
:104E0C00FFF7ECF9FF2810D0062804D84D2323FA1D
:104E1C0000F0C30709D42046FFF7A0FF28B12946AC
:104E2C002046BDE83840FFF7E1B938BD10B504465F
:104E3C00FFF7D4F9031FDBB2012B08D92046FFF78B
:104E4C008DFF20B12046BDE81040FFF7D7B90020F8
:104E5C0010BD704738B50A4B03600123044643610B
:104E6C000849202000F074F8202560600549A560F1
:104E7C00284600F06DF8C4E90305204638BD00BF94
:104E8C00180001009C520B0030B50E4D2978BFF371
:104E9C005B8F11F0010487B011D12846FFF7F7F8AA
:104EAC0068B16846FFF7D6FF6A4621460648FFF709
:104EBC00BBFB2846FFF7F0F8044800F04BF802481B
:104ECC0007B030BD2CE7032030E703205F4E0B000A
:104EDC007047000038B5044614252A46002100F01E
:104EEC004DF825804025074925812846258200F06C
:104EFC002FF804496060284600F02AF8E06020464C
:104F0C0038BD00BF9C520B0030B50E4D2978BFF355
:104F1C005B8F11F0010487B011D12846FFF7B7F869
:104F2C0068B101A8FFF7D6FF01AA21460648FFF792
:104F3C0095FD2846FFF7B0F8044800F00BF802483E
:104F4C0007B030BD44E7032048E70320DD4E0B00DB
:104F5C00FFF799B8002301461A46184600F04CB8E2
:104F6C000A44914200F1FF3300D1704710B511F89B
:104F7C00014B03F8014F9142F9D110BD0244034695
:104F8C00934200D1704703F8011BF9E738B5104B79
:104F9C001D68AB6B0446B3B91820FFF7B3FA024691
:104FAC00A86320B90B4B0C484221FFF7BBFA0B4905
:104FBC000B4BC0E900130B4B83600B238381002147
:104FCC000120C2E90401AB6B00221C615A6138BD9F
:104FDC0044E603209D520B00B4520B000E33CDABB4
:104FEC0034126DE6ECDE0500034613F8012B002AA3
:104FFC00FBD1181A013870472DE9F843DFF8B88057
:10500C000646D8F800001F460D46914600F056F8AB
:10501C00254B1C6834B9254C1C60254B13B11B68FF
:10502C00C4F8883063681F2B07DDD8F8000000F047
:10503C0047F84FF0FF30BDE8F8834EB3D4F8880042
:10504C0088B91C4B23B9D8F8000000F038F8F0E709
:10505C004FF48470FFF756FA0028F4D00023C0E90F
:10506C004033C4F88800636840F8239001229A40CA
:10507C0000EB8301D0F800311343C0F80031022E4D
:10508C00C1F8807002BFD0F804311343C0F804316A
:10509C006368D8F800005A1C0233626044F823504D
:1050AC0000F00EF80020C6E7E8E703205CE70320D9
:1050BC000000000011450B00A8E603207047704764
:1050CC00704700001D400B0059400B0081400B0045
:1050DC0085400B00000000004C4544207475726E36
:1050EC006564206F6E004C4544207475726E656467
:1050FC00206F666600427574746F6E205374617411
:10510C006520697320484947482100427574746FC3
:10511C006E205374617465206973204C4F572100C5
:10512C000000000000000000BF450B00B5450B005F
:10513C00AB450B00A1450B0095450B0089450B00B9
:10514C00B1470B00B9470B007D450B0075450B00B3
:10515C006B450B0061450B00E9470B00000000009C
:10516C0000000000DD450B0027460B00FF450B003F
:10517C00DF450B0007460B000F460B0017460B00D4
:10518C001F460B00000000000000000081460B00D1
:10519C0071460B0073460B0061707000000000003C
:1051AC000000000071470B007B470B0085470B008C
:1051BC008F470B0099470B00A5470B00B1470B001D
:1051CC00B9470B00C1470B00CD470B00D5470B006F
:1051DC00DF470B00E9470B0025592D256D2D256464
:1051EC005425483A254D3A2553257A00617363744A
:1051FC00696D65000000000000000000ED490B0027
:10520C00594A0B00314A0B00D5480B00014A0B00E0
:10521C001D4A0B000F4A0B002B4A0B00EF490B00E9
:10522C00F3490B000000000000000000AB4A0B002B
:10523C00134B0B00E94A0B00D5480B00DB4A0B0063
:10524C00AD4A0B00BD4A0B000D4B0B00CD4A0B00B9
:10525C00A54A0B000000000000000000134C0B00DE
:10526C00094C0B00FF4B0B00B54B0B00F34B0B0029
:10527C00E74B0B00B1470B00B9470B00DB4B0B00A6
:10528C00D34B0B00C94B0B00BF4B0B00E9470B007A
:10529C00005245454E54206D616C6C6F63207375E4
:1052AC0063636565646564002F746D702F6A656E49
:1052BC006B696E732D4743432D31302D70697065CA
:1052CC006C696E652D34385F3230323031313234A6
:1052DC005F313630363138303633392F7372632FB5
:1052EC006E65776C69622F6E65776C69622F6C697D
:1052FC0062632F7374646C69622F72616E642E63C7
:10530C000000000081410B0051450B00C9450B000A
:10531C0061470B00C1480B0095490B00B5490B00C8
:10532C00D9490B001D4C0B000000000000000000D0
:04533C00000000006D
:10534000040000001400000003000000474E550058
:105350004CA486AC985D72CD8A9A86FB9FB0AC4215
:045360009F1E5C8EA2
:045364000000000045
:10536800F8510B0048E60320000000000000000090
:105378000000000000000000000000000000000025
:105388000000000000000000000000000000000015
:105398000000000000000000000000000000000005
:1053A80000000000000000000000000000000000F5
:1053B80000000000000000000000000000000000E5
:0C53C8000000000000000000ECE70320E3
:1053D400FFFFFFFF00000102030405060708090A96
:1053E4000B0C0D0E0F101112131415161718191A91
:0853F4001B1C1D1E1F202800D8
:0453FC007856341299
:04000003B000401CED
:00000001FF
